:100000000C94FB030C9418040C9418040C9418041E
:100010000C9418040C9418040C9418040C941804F0
:100020000C9418040C9418040C9463250C94352635
:100030000C94CB1D0C9418040C9418040C94180404
:100040000C9418040C9418040C9418040C941804C0
:100050000C9418040C94331E0C9418040C9418047B
:100060000C9418040C9418040C9418040C941804A0
:100070000C9418040C9418040C9418040C94180490
:100080000C9418040C9418040C9418040C94180480
:100090000C9418040C9418040C9418040C94180470
:1000A0000C9418040C9418040C9418047004730431
:1000B000760479047C047F048204860790079D07F8
:1000C000AA07B707C407D107DE07EB07F80705083B
:1000D00012081F082C0839084608530860086D08E4
:1000E000790885089108C008C508CF08C308C80862
:1000F000CD08CB08690A6B0A760A6D0A6F0A710A85
:10010000730A750A780A7A0A7C0A870A7E0A800AC4
:10011000820A840A860A890AF712F7122913291318
:1001200060138013E9144715C21347156F146F1439
:10013000E0144715471541157C147C147C147C147D
:100140007C147C147C147C147C147C147C147C142F
:100150007C147C147C147C148D149A14A114A8149F
:10016000B214D215D215E415E415DB15E415E41527
:10017000E415D215D215E015E415E415E015A22614
:10018000C926BB27C926BB2715273827BB278E279B
:100190009D2702E23032333103E20002E002E175D2
:1001A00003E103E045370002E23032353203E2007A
:1001B00002E002E17503E103E046430002E230326F
:1001C000353103E20002E002E17503E103E046425B
:1001D0000002E23032343903E20002E002E175034A
:1001E000E103E046390002E23032353003E200023A
:1001F000E002E17503E103E046410002E2303234FF
:100200003603E20002E002E17503E103E046360056
:1002100002E23032343403E20002E002E17503E12D
:1002200003E046340002E23032343203E20002E0FE
:1002300002E17503E103E046320002E2303234337A
:1002400003E20002E002E17503E103E0463300024D
:10025000E23032333903E20002E002E17503E103E8
:10026000E045460002E23032333803E20002E002A9
:10027000E17503E103E045450002E2303233360325
:10028000E20002E002E17503E103E045430002E21F
:100290003032333703E20002E002E17503E103E0AC
:1002A00045440002E23032333503E20002E002E16D
:1002B0007503E103E045420002E23032333403E2E9
:1002C0000002E002E17503E103E045410002E23093
:1002D00032333203E20002E002E17503E103E0455C
:1002E000380002E23032333303E20002E002E1750B
:1002F00003E103E045390002E23032323803E20024
:1003000002E002E17503E103E045340002E230322D
:10031000323603E20002E002E17503E103E0453218
:100320000002E23032323403E20002E002E17503FF
:10033000E103E045300002E23032323503E20002F0
:10034000E002E17503E103E04531006572676F6427
:100350006F785F657A2F7472697430722040203232
:100360003031392D30322D31302D30303A32373A6C
:100370003535000000F0A129000000310000000226
:100380005300001E00140004001D00350002511F20
:10039000001A0016001B0034002B00200008000784
:1003A0000006000000E1002100150009001900000E
:1003B000000151220017000A0005000000E20000C1
:1003C000004C00000000000000E00400002A0000D3
:1003D0000000000000E30023001C000B00110000DF
:1003E00000E000240018000D00100000000151255D
:1003F000000C000E00360000002C00260012000F3A
:100400000037002F00280027001300330038003089
:1004100000025100002D002E0000000153000029B1
:1004200000000000000000000000003A000000F2A0
:1004300000FB00000000003B00F400F100FA0000A7
:10044000002B003C00F600F000F9000000E1003D48
:1004500000F500F300FC00000000003E000000007A
:100460000000000000E20000004C0000000000005E
:1004700000E00400002A00000000000000E3003F4C
:10048000000000000000000000E0004000000050FC
:1004900000FE0000000000410000005100FE0000CE
:1004A000002C00420000005200FF00000028004322
:1004B0000000004F00000000000000E75C44004521
:1004C0000000000000000029000000FC5C000000AB
:1004D000000000E85CEC5CF05CF45CF85C0000E9B7
:1004E0005CED5CF15CF55CF95C2B00EA5CEE5CF2C7
:1004F0005CF65CFA5CE100EB5CEF5CF35CF75CFBE8
:100500005C000000000000000000000000E20000AD
:10051000004C00000000000000E004AC002A0000D5
:100520000000000000E300AB00000000000000003D
:1005300000E000A8005F005C00590062000000AA13
:100540000060005D005A0000002C00A90061005E00
:10055000005B0063002800AD0054005500560057B2
:10056000000000AE00000000005800000000000085
:10057000000000000000002A2B28000000000000FE
:100580000000000000000000000029000000002C16
:100590001E3420212224342627252E362D373827B5
:1005A0001E1F202122232425263333362E37381FC1
:1005B0000405060708090A0B0C0D0E0F1011121383
:1005C0001415161718191A1B1C1D2F3130232D3521
:1005D0000405060708090A0B0C0D0E0F1011121363
:1005E0001415161718191A1B1C1D2F3130354C0005
:1005F00000000000000000000000000000000000FB
:1006000000000000000000000000000000000000EA
:1006100001010101010100010101010000000000D0
:1006200000000000000000000001000100010101C5
:1006300001010101010101010101010101010101AA
:10064000010101010101010101010000000101009E
:10065000000000000000000000000000000000009A
:100660000000000000000000000001010101000482
:10067000033000000016034500720067006F00445D
:10068000006F007800200045005A00000016034566
:1006900000720067006F0044006F00780020004582
:1006A000005A0000000403090409023B0002010093
:1006B000A0FA090400000103010100092111010051
:1006C000012240000705810308000A090401000116
:1006D0000300000009211101000122C0000705826A
:1006E0000320000A1201100100000008EDFE0713AC
:1006F00001000102030105010902A10185020901AE
:10070000A1000509190129051500250195057501A7
:1007100081029501750381010501093009311581B7
:10072000257F95027508810609381581257F950179
:1007300075088106050C0A38021581257F9501751B
:10074000088106C0C005010980A1018503160100CA
:100750002603001A81002A8300751095018100C0CC
:10076000050C0901A1018504160100269C021A014D
:10077000002A9C02751095018100C005010906A19F
:10078000018505050719E029E7150025019508757C
:100790000181020508190129059505750191029548
:1007A00001750391010507190029EF150025019531
:1007B000F075018102C005010906A101050719E0D4
:1007C00029E7150025019508750181029501750835
:1007D0008101050819012905950575019102950109
:1007E000750391010507190029FF150026FF0095E3
:1007F0000675088100C011241FBECFEFDAE0DEBF0E
:10080000CDBF11E0A0E0B1E0ECE8F6E502C0059054
:100810000D92A43CB107D9F723E0A4ECB1E001C0EC
:100820001D92AF34B207E1F70E9487220C94442B4B
:100830000C94000080B38C7080BB81B3836F81BB4C
:10084000089584B1807F84B985B1807F85B98AB1EC
:10085000837F8AB98BB1837F8BB93E984698089580
:10086000CF93E82F873090F580910001909101019E
:10087000892B09F049C0CE2F64E670E080E40E9425
:10088000B1059093010180930001892BD1F464E6B6
:1008900070E082E10E9408069093010180930001BC
:1008A000892B79F481E090E001C0880FCA95EAF7BE
:1008B00064E670E080950E940806909301018093A1
:1008C000000184E690E0CF910C945D0690E0FC017D
:1008D0003797E730F105C0F4EA5AFF4F0C9403282C
:1008E000209A289811C0219A29980EC0229A2A98F5
:1008F0000BC0239A2B9808C0529A5A9805C0539A55
:100900005B9802C03E9A4698CF9108950895089545
:100910000C948704CF93DF930E94EF0690E09093AE
:100920000101809300010E9421040E941A04A9E1A0
:10093000B2E025EC31E0E7E2F2E04EE04E0F11923A
:100940001D9280E090E0E901C80FD91F188201963E
:1009500086309105C1F72A5F3F4F4E13F0CFDF91EC
:10096000CF910C9471090E94EF0690E090930101E1
:10097000809300010E9421040E941A04E7E2F2E041
:100980008EE08E0F11928E13FDCF0895CF93DF93DB
:10099000E62FF0E0E75EFD4F40814827808386E048
:1009A000689FF0011124EB53FE4F20E030E080E01F
:1009B00061E070E050E0AAE0B22F9081992319F035
:1009C0009150908307C0EB01022E01C0CC0F0A9416
:1009D000EAF78C2BEA0102C0D595C795BA95E2F7E4
:1009E000C0FDA0832F5F3F4F31962630310521F7A0
:1009F000DF91CF910895CF93DF93D82F873008F000
:100A000040C08091000190910101892B09F042C002
:100A100064E670E080E40E94B10590930101809348
:100A20000001892B11F0C0E027C064E670E083E18B
:100A30000E9408069093010180930001892B99F789
:100A400064E670E081E40E94B10590930101809317
:100A50000001892B41F784E690E00E94380697FF59
:100A600005C09093010180930001DDCFC82FC09590
:100A7000109201011092000184E690E00E945D0650
:100A80000AC09FB1CFB1C07FC695C6959370C92BE0
:100A9000C09501C0C0E06D2F8C2F0E94C604282F86
:100AA0002095ED2FF0E0E95DFD4F908192238C239E
:100AB000892BDF91CF910895EF92FF920F931F93AF
:100AC000CF93DF938091000190910101892B91F0E8
:100AD0008091C4018F5F8093C40181110BC00E947B
:100AE000EF0690E09093010180930001892B11F4AF
:100AF0000E94810687E2E82E82E0F82E0EE212E0E4
:100B0000C0E08C2F0E943004D7E0DC0F8D2F0E94B4
:100B100030048C2F0E94FB04F70181937F018D2FFD
:100B20000E94FB04F80181938F010E942104CF5F92
:100B3000C73039F70E947B0981E0DF91CF911F9187
:100B40000F91FF90EF900895E82FF0E0E95DFD4FE1
:100B50008081089508951092B9008CE08093B800C8
:100B60000895EF92FF920F931F93CF93DF93182F67
:100B7000EB011092BC0084EA8093BC000E94FD1D32
:100B80007C019091BC0097FD0EC0CF3F8FEFD8073E
:100B9000C1F30E94FD1D8E199F098C179D0788F3D4
:100BA0008EEF9FEF2EC09091B900987F983041F062
:100BB0009091B900987F903119F08FEF9FEF21C08D
:100BC0001093BB0084E88093BC000E94FD1D8C0143
:100BD0009091BC0097FD0CC0CF3F8FEFD807C1F3B9
:100BE0000E94FD1D801B910B8C179D0788F3D8CFA9
:100BF0008091B900887F883111F08034F1F680E06F
:100C000090E0DF91CF911F910F91FF90EF900895A9
:100C10000F931F93CF93DF93EB018093BB0084E886
:100C20008093BC000E94FD1D8C019091BC0097FD3B
:100C30000EC0CF3F8FEFD807C1F30E94FD1D801B70
:100C4000910B8C179D0788F38EEF9FEF0CC02091BE
:100C5000B900287F81E090E0283211F480E090E034
:100C6000919581959109DF91CF911F910F910895F1
:100C70000F931F93CF93DF93EC0184E88093BC0024
:100C80000E94FD1D8C019091BC0097FD0EC0CF3FCE
:100C90008FEFD807C1F30E94FD1D801B910B8C17AD
:100CA0009D0788F38EEF9FEF03C08091BB0090E01B
:100CB000DF91CF911F910F9108950F931F93CF93C1
:100CC000DF93EC0184E98093BC000E94FD1D8C0140
:100CD0009091BC0094FF0EC0CF3F8FEFD807C1F3B7
:100CE0000E94FD1D801B910B8C179D0788F38EEFD2
:100CF0009FEF02C080E090E0DF91CF911F910F91B4
:100D0000089556985E9825982D9826982E9827989D
:100D10002F988FEF90E090938900809388009093B4
:100D20008B0080938A0090938D0080938C00259A8D
:100D30002D9A2FEF80E792E0215080409040E1F71C
:100D400000C00000269A2E9A2FEF80E792E02150F3
:100D500080409040E1F700C00000279A2F9A2FEFC3
:100D600080E792E0215080409040E1F700C0000011
:100D700025982D982FEF80E792E0215080409040F9
:100D8000E1F700C0000026982E982FEF80E792E050
:100D9000215080409040E1F700C0000027982F9834
:100DA00056985E9825982D9826982E9827982F98D3
:100DB000089589EA8093800089E0809381002498D7
:100DC0002C983F988AB18F7C8AB96E98479A8BB1DC
:100DD00080638BB9769A0E9481060C94860480E227
:100DE00090E0909301018093000180913502811180
:100DF0000EC00E94AB0581E0809335022FEF83ED9A
:100E000090E3215080409040E1F700C0000064E68C
:100E100070E080E40E94B10590930101809300018D
:100E2000892B09F050C064E670E080E00E9408065B
:100E30009093010180930001892B09F044C064E67E
:100E400070E080E00E940806909301018093000109
:100E5000892BC9F564E670E08FE30E940806909341
:100E6000010180930001892B71F584E690E00E94D6
:100E70005D0664E670E080E40E94B1059093010194
:100E800080930001892BF9F464E670E08CE00E9405
:100E900008069093010180930001892BA1F464E678
:100EA00070E080E00E9408069093010180930001A9
:100EB000892B49F464E670E08FE30E940806909362
:100EC00001018093000184E690E00E945D0680911C
:100ED00000010895611108C0FC018281882321F07E
:100EE0008BE493E00E946E0980E090E00895CF9338
:100EF000FC01E75EFC45E631F10508F023C1DB01AA
:100F0000E35AFF4F1296CC910C940328CC2309F49A
:100F10001AC19091360281E08927809336020BC175
:100F2000CC2309F410C1C0913602CC2319F08FE311
:100F300093E0FFC086E393E002C1CC2309F403C130
:100F4000C0913602CC2319F08AE293E0F2C081E22C
:100F500093E0F5C0CC2309F4F6C0C0913602CC234F
:100F600019F085E193E0E5C08CE093E0E8C0CC2384
:100F700009F4E9C0C0913602CC2319F080E093E077
:100F8000D8C087EF92E0DBC0CC2309F4DCC0C0916D
:100F90003602CC2319F08BEE92E0CBC082EE92E0C9
:100FA000CEC0CC2309F4CFC0C0913602CC2319F0B7
:100FB00086ED92E0BEC08DEC92E0C1C0CC2309F476
:100FC000C2C0C0913602CC2319F081EC92E0B1C0CE
:100FD00088EB92E0B4C0CC2309F4B5C0C0913602CE
:100FE000CC2319F08CEA92E0A4C083EA92E0A7C077
:100FF000CC2309F4A8C0C0913602CC2319F087E9AC
:1010000092E097C08EE892E09AC0CC2309F49BC08E
:10101000C0913602CC2319F082E892E08AC089E7B9
:1010200092E08DC0CC2309F48EC0C0913602CC234F
:1010300019F08DE692E07DC084E692E080C0CC237A
:1010400009F481C0C0913602CC2319F088E592E002
:1010500070C08FE492E073C0CC2309F474C0C091D7
:101060003602CC2319F083E492E063C08AE392E075
:1010700066C0CC2309F467C0C0913602CC2319F0B6
:101080008EE292E056C085E292E059C0CC2309F48A
:101090005AC0C0913602CC2319F089E192E049C0D0
:1010A00080E192E04CC0CC2309F44DC0C0913602DF
:1010B000CC2319F084E092E03CC08BEF91E03FC07C
:1010C000CC2309F440C0C0913602CC2319F08FEE36
:1010D00091E02FC086EE91E032C0CC23A1F1C09107
:1010E0003602CC2319F08AED91E023C081ED91E026
:1010F00026C0CC2341F1C0913602CC2319F085ECF7
:1011000091E017C08CEB91E01AC0CC23E1F0C091C4
:101110003602CC2319F080EB91E00BC087EA91E016
:101120000EC0CC2381F0C0913602CC2331F08BE984
:1011300091E00E946E09C0E006C082E991E00E9441
:101140006E0901C0C1E08C2FCF910895CF92DF923C
:10115000EF92FF926B017C010E942B1C56985E98C7
:1011600025982D9826982E9827982F9890E0FC0186
:101170003197E730F105A8F4ED58FF4F0C940328A0
:10118000259A2D9A0EC0259A2D9A269A2E9A09C034
:10119000259A2D9A04C0259A2D9A269A2E9A279A36
:1011A0002F9AC701B601FF90EF90DF90CF9008957E
:1011B00081E008950C947707CF93282F30E0F90150
:1011C000E159FA4FC491F901E151FA4F24912223D8
:1011D00059F081EE0E9427118C2F0E9427118C2F2D
:1011E0000E94451281EE04C08C2F0E9427118C2F83
:1011F000CF910C944512FF920F931F93CF93DF93DF
:10120000EC01F62E8881882331F18E010F5F1F4F8C
:10121000813031F4C9818C2F0E9427118C2F0AC094
:10122000823029F489810E942711E80108C08330A7
:1012300021F489810E944512F8CF0E94DC08219692
:101240008F2D8823F9F2EFE9FFE03197F1F700C025
:1012500000008150F6CFDF91CF911F910F91FF9049
:10126000089560E00C94FB080F931F93CF93DF93D6
:10127000EC01062FFE018491882359F19E012F5F16
:101280003F4F813041F4E901F9011491812F0E940F
:101290002711812F0DC0823031F4E901F9018491C9
:1012A0000E9427110AC0833031F4E901F9018491C9
:1012B0000E94451202C00E94DC082196802F8823DC
:1012C000C9F2EFE9FFE03197F1F700C0000081506B
:1012D000F6CFDF91CF911F910F91089560E00C94AC
:1012E00034090E947B1C811102C00E94E91C0E94EB
:1012F000D60D0C94D9060C948804282F2F7041F039
:10130000822F90E02A3010F44D96089506970895A4
:1013100087E290E0089508950C948B090C948C0951
:1013200008950E94C2150E9490092FEF84E39CE06B
:10133000215080409040E1F700C000000C94591EFD
:10134000FF920F931F93CF93DF938C01FC01C08119
:10135000D18180916702811113C08281882349F075
:10136000CE010E94F81AF82E682FCE010E949B1A17
:1013700004C0CE010E94CB1AF82EBE018F2D04C0EE
:10138000CE010E94F81ABE010E94400BEC01B80188
:101390000E94DA08882309F46BC1B801CE010E94CB
:1013A000510E882309F464C1B801CE010E940F0FC9
:1013B000882309F45DC1C63DFCE5DF0761F5F8014E
:1013C0008281882351F010923C020E94FD1D90936F
:1013D00039028093380282E03BC00E94781B85FF6F
:1013E00005C081E080933C0280933D0280913C02E5
:1013F00081110FC080913802909139020E94091E1C
:10140000883C910530F486E20E94271186E20E9412
:10141000451282E02FC0C73D8CE5D80770F1CB3D67
:101420008CE5D80709F4D6C008F0DBC0C73DFCE561
:10143000DF0709F0F4C0F8018281882361F010927F
:101440003D020E94FD1D90933B0280933A0280E290
:101450000E94B5120DC10E94781B81FF05C081E07A
:1014600080933C0280933D0280913D02882309F4E1
:10147000C5C080E20E94BC12FBC0C531ECE5DE07AE
:1014800008F07EC0C230FCE5DF0708F452C0F80166
:101490008281882309F459C00E947B1C811102C0FB
:1014A0000E94E91C0E948E1C90E09093410380935F
:1014B0004003FE01E350FC45E231F10530F4E6580B
:1014C000FF4F809140030C9403288091400381607A
:1014D00027C0826025C0846023C0806121C08062F3
:1014E0001FC080641DC080681BC08460886018C0F5
:1014F0008E7F16C08D7F14C08B7F12C08F7E10C070
:101500008F7D0EC08F7B0CC08F770AC08B7F877F4B
:1015100007C087FB222720F991E0922790FB87F9EB
:1015200080934003809140030E94921C0E94C21548
:101530009FC0C1158CE5D80781F0C130DC45A9F00A
:1015400081E080933C0280933D02C801DF91CF91FE
:101550001F910F91FF900C94D808F8018281882385
:1015600009F486C00E94910983C0F8018281882312
:1015700009F47EC08091060381608093060378C0E1
:10158000C631DC45E9F60E94781B282FF8018281DC
:101590004091050150910601882379F02A7A91E063
:1015A00009F490E090933702911102C069E201C002
:1015B00065E3CA010E94501D0AC080913702811163
:1015C00002C069E201C065E3CA010E945B1D0E947E
:1015D000C71B4EC0F8018281882309F449C080E00E
:1015E0000AC0CC3DECE5DE07D1F5F8018281882305
:1015F00009F43EC082E00E9426233AC080913A025C
:1016000090913B020E94091E883C910508F031CF61
:1016100087E20E94271187E20E9445122ACFC83D27
:10162000DC4509F08DCFF8018281811108CF8091CE
:101630003D0281111ECF80913A0290913B020E949F
:10164000091E883C910508F014CF80E20E94BC126C
:1016500088E20E94271188E20E94451209C0CD3D10
:10166000DC4509F06DCFF801828181110E94E91CEF
:1016700080E0DF91CF911F910F91FF900895089521
:1016800096E0799FF001112494E5899FE00DF11D0A
:101690001124E60FF11DEE0FFF1FE958FC4F859155
:1016A00094910895880F991FFC01ED58FC4F859186
:1016B00094910895CF93DF930E94400B0E941F0DD9
:1016C000EC01811520E59207F0F5811530E49307D0
:1016D00008F029C1883E910500F5803E910508F08B
:1016E000AAC1883A910570F4853A910508F0A4C022
:1016F0008130910509F49FC108F450C1049708F0A6
:101700009AC14CC18F3B910508F4A1C0803C910562
:1017100008F444C1805C9109F9C0811540E2940746
:1017200058F4C11581E0D80708F085C1C03FD10544
:1017300008F434C1D0657FC1811520E3920708F019
:10174000E9C09F70E3C0811535E5930708F044C0F8
:10175000811544E5940708F0FDC0C11582E5D8075E
:1017600008F5C11521E5D20708F0E0C08C2F837081
:1017700021E030E002C0220F331F8A95E2F73C6877
:10178000CE0174E0969587957A95E1F78370382BB2
:10179000CF70C695C69540E2C49FE0011124C22BCC
:1017A000D32B49C12C2F26952695CE0183709927DE
:1017B000C115D34508F0BFC040E2249F9001112419
:1017C000C1E0D0E002C0CC0FDD1F8A95E2F72C2BE0
:1017D0003D2BE901DC682FC181154AE59407A0F48F
:1017E000C11589E5D80708F0C4C0C11526E5D207A0
:1017F00008F4B5C0C11538E5D30708F4CFC0DC2F15
:10180000CC27C06FD06A17C181159B4508F4C6C0AC
:10181000C1158CE5D80708F4BEC0CE0190568115DD
:10182000904208F0BBC08D2F8F710E949C0DDD2768
:10183000D0628F71D82BFFC0853A910509F4B1C0F1
:10184000863A910509F0B0C0C2E8D0E4F4C0883A05
:10185000910509F4ACC0893A910509F4ABC08A3A04
:10186000910509F4AAC08B3A910509F4A9C08C3AF4
:10187000910509F4A8C08B3B910509F4A7C08C3BE6
:10188000910509F4A6C08D3A910509F4A5C0803BE5
:10189000910509F4A4C08E3A910509F4A3C08F3ACA
:1018A000910509F4A2C0813B910509F4A1C0823BD6
:1018B000910509F4A0C0833B910509F49FC0843BC6
:1018C000910509F49EC0853B910509F49DC0863BB6
:1018D000910509F49CC0873B910509F49BC0883BA6
:1018E000910509F49AC0893B910509F499C08D3B93
:1018F000910509F498C08E3B910509F497C08A3B85
:10190000910509F496C0C0E0D4E495C00E94520B42
:10191000EC0191C09927D3FF03C0EC01D86C8BC0B8
:10192000EC01D06C88C0DF70D06A85C0DC2FCC277A
:10193000C16FD06A80C040E2249F90011124C1E0B1
:10194000D0E002C0CC0FDD1F8A95E2F7C22BD32B6B
:10195000DA6871C0D82FCC27C46FD06A6CC08C2FC6
:101960000E949C0D8F71C82FD0E0DC2FCC27D06255
:1019700062C08C2F8F700E949C0D94E0D695C79505
:101980009A95E1F7CF70D0E0DC2FCC27D06A8F702A
:10199000806EC82B50C0DD27D0664DC0C0E0D0E0BF
:1019A0004AC0C1E8D0E447C0C3E8D0E444C0C2EEB6
:1019B000D4E441C0C9EED4E43EC0CAEED4E43BC096
:1019C000C5EBD4E438C0C6EBD4E435C0C3EBD4E4F3
:1019D00032C0C4EBD4E42FC0C7EBD4E42CC0CCECB1
:1019E000D4E429C0CDECD4E426C0C3E8D5E423C0B8
:1019F000CAE8D5E420C0C2E9D5E41DC0C4E9D5E4F5
:101A00001AC0C1E2D6E417C0C3E2D6E414C0C4E2EF
:101A1000D6E411C0C5E2D6E40EC0C6E2D6E40BC0DF
:101A2000C7E2D6E408C0CFE6D4E405C0C0E7D4E4FA
:101A300002C0CAE2D6E4CE01DF91CF910895823888
:101A4000910549F1B0F48133910509F458C048F487
:101A50008932910509F44EC08A32910509F454C0C7
:101A600008958533910509F440C08933910599F0B3
:101A70000895833E910529F138F4803E910591F057
:101A8000823E9105A1F00895863E9105F9F0873ECA
:101A9000910531F108952091400320FD3AC021FDC8
:101AA00038C008958091400380FD35C032C08091D8
:101AB000400382FF32C08091400384FD30C083EE3A
:101AC00039C08091400382FD28C0F5CF809140034A
:101AD00083FF27C08091400384FD21C087EE2AC088
:101AE0008091400383FD1DC0F5CF8091400385FDAB
:101AF0001AC01BC08091400385FD17C014C080919F
:101B0000400386FD14C015C08091400386FD11C0BE
:101B10000EC080EE0FC089E30DC082EE0BC080E0E6
:101B200009C086EE07C089E205C085E303C08AE2EA
:101B300001C081E390E008959091400392FF0DC0B1
:101B4000282F2871283019F4877F846006C0282F39
:101B50002471243011F48B7F886093FF0DC0282FEF
:101B60002871283119F4877E846106C0282F2471DA
:101B7000243111F48B7E886194FD877E0895CF9384
:101B8000DF93813020E8920768F0FB012281222355
:101B900049F0EC010E94EC0DCE019F770E94340EBB
:101BA0000E94210E81E0DF91CF9108958CE090E0BA
:101BB0000E94CB2A90E0A0E0B0E08093360390939F
:101BC0003703A0933803B093390308956091360327
:101BD0008CE090E00C94D92A0E94781B80933E02FE
:101BE0000E948B1B80913603813071F048F0823067
:101BF000D9F08430F9F486EE0E94AD1288E118C065
:101C000082EE0E94271116C080EE0E94271181EEFD
:101C10000E94271188E10E94AD1281EE0E944512B8
:101C200080EE0E94451206C082EE0E94271187E5D1
:101C30000E94AD128FE39CE90197F1F700C000000C
:101C4000089580913603813021F038F0823029F0F8
:101C500007C08CE20E94AD1203C082EE0E944512C2
:101C600080913E020C94881B0F931F93CF93DF93B8
:101C70008C01CCE0D0E0C8010C2E02C0969587956F
:101C80000A94E2F78F700E947D090E94AD1224979A
:101C9000CC3F8FEFD80779F7DF91CF911F910F914C
:101CA00008950F931F93CF93DF93EC018B01FB01FA
:101CB0008281882319F1C23EFCE5DF07C1F050F4B0
:101CC000C03EECE5DE0781F0C13EFCE5DF07B1F484
:101CD00081E010C0C33E8CE5D80759F0C43EECE566
:101CE000DE0761F484E006C01092360305C082E08E
:101CF00001C083E0809336030E94E60DB801CE0157
:101D0000DF91CF911F910F910C94BF0D0F931F93F3
:101D1000CF93DF93CDB7DEB728970FB6F894DEBF29
:101D20000FBECDBF809104018F93809103018F93EB
:101D30008FEB91E09F938F931F9288E08F938E019A
:101D40000F5F1F4F1F930F930E941D28C8010E9411
:101D500031090FB6F894DEBF0FBECDBF28960FB67F
:101D6000F894DEBF0FBECDBFDF91CF911F910F91D1
:101D70000895CF93DF93EC010E94FD1D90934302E1
:101D800080934202D0934102C0934002DF91CF91F1
:101D90000895CF93DF938091400290914102892B67
:101DA00059F180914202909143020E94091EEC0178
:101DB00080910301909104018C179D0718F481EE26
:101DC0000E942711809140020E94271180914002B9
:101DD0000E94451280910301909104018C179D0788
:101DE00018F481EE0E9445121092430210924202B2
:101DF0001092410210924002DF91CF91089510920B
:101E000002010C94C90E80910201882321F01092E6
:101E100002010C94C90E81E08093020108951F9382
:101E2000CF93DF93EC01FB011281112309F45BC016
:101E30008436910509F444C078F48B32910509F495
:101E40003FC028F40497849708F04AC039C08D97A2
:101E50000C9708F045C034C089319C4539F1CA312E
:101E60008CE5D80768F4C731ECE5DE07A1F0C8318E
:101E7000DC45B1F58091030190910401059710C0F4
:101E8000CB318CE5D807C1F0A0F0CC31DC4541F571
:101E90000E94FF0E09C080910301909104010596F4
:101EA000909304018093030110E020C00E94860EED
:101EB000FBCF0E94030FF8CF81E080930201F4CFA3
:101EC0000E94C90E80910201882381F00E94781B34
:101ED00080933F0281110AC0CE010E94B90EE4CF67
:101EE0000E94C90E03C00E94C90E11E0812FDF912C
:101EF000CF911F91089590934902809348020895CD
:101F0000E0914802F0914902309721F00190F08170
:101F1000E02D099480E00895E0914802F091490293
:101F2000309799F020911601222359F02091400317
:101F300027FF07C0DC012C9111962C93119725E007
:101F40002C930280F381E02D09940895E0914802DA
:101F5000F0914902309739F022E0DC012C930480A3
:101F6000F581E02D099408952091460230914702B1
:101F70008217930771F09093470280934602E09195
:101F80004802F0914902309721F00680F781E02D58
:101F900009940895209144023091450282179307D5
:101FA00071F09093450280934402E0914802F091D1
:101FB0004902309721F00084F185E02D09940895BD
:101FC00085B7806885BF85B7806885BF0895089507
:101FD0000E94E00F0C94E70F81E008950E94F41D29
:101FE0000E948A040C948B1ECF92DF92EF92FF9294
:101FF0000F931F93CF93DF93CDB7DEB72B970FB619
:10200000F894DEBF0FBECDBF0E945C050E94EC0FAE
:10201000811111C08FEF89838A831B820E94FD1D6D
:102020008160782F9D838C8349815A816B818D815A
:102030000E94D81056C08BE4C82E82E0D82E00E053
:1020400010E0E02E802F0E94A405F60141916F015F
:10205000F42EF82631F40F5F1F4F0E30110589F76B
:10206000D9CF9091060391FF04C08B870E94AA05E7
:102070008B8520E030E04F2D50E0922FBA01022EE8
:1020800002C0759567950A94E2F760FF24C02E831D
:10209000EF8221E030E0690102C0CC0CDD1C9A9592
:1020A000E2F790E08C219D21892B09F420E028871C
:1020B0000E94FD1D8160782F9A8789874E815F81FC
:1020C00068858A850E94D810F801E55BFD4F808104
:1020D000C826C08206C02F5F3F4F2630310569F603
:1020E000BACF0E941E2010914A020E94800F18173A
:1020F000A1F00E94800F80934A022B960FB6F894AD
:10210000DEBF0FBECDBFDF91CF911F910F91FF902A
:10211000EF90DF90CF900C948E092B960FB6F89429
:10212000DEBF0FBECDBFDF91CF911F910F91FF900A
:10213000EF90DF90CF900895DC0111962C911197CC
:102140008C91682F70E041E050E001C0440F8A9507
:10215000EAF712968C91129730E0882329F080914B
:1021600069028823E9F006C0F901E75AFD4F908122
:102170009423B1F086E0829FF001839FF00D11243B
:10218000E60FF71FEE0FFF1FE95EFE4F8081918182
:102190008D939C93F901E75AFD4F8081482B06C02F
:1021A000F901E75AFD4F4095808148234083089507
:1021B000CF93DF93CDB7DEB72B970FB6F894DEBF82
:1021C0000FBECDBF942F4F83252F588769877A87FD
:1021D0008B874A855B85452B21F02F3F09F59F3F73
:1021E000F9F4DE01119686E0FD0111928A95E9F776
:1021F00085E0FE01379601900D928A95E1F74981BD
:102200005A816B817C818D819E810E946C182B96F6
:102210000FB6F894DEBF0FBECDBFDF91CF9108950A
:10222000CE0107960E949C10DCCFFC018081918139
:102230000E94391B92959F70963041F480916902FB
:1022400091E089278093690290936802089588231A
:1022500009F41AC18238C1F40E94800F81FD14C1B3
:1022600069E380910501909106010E94501D0E9432
:10227000C71B2FEF81EE94E0215080409040E1F7A2
:1022800000C0000069E319C08338F9F40E94800F90
:1022900080FDFAC063E580910501909106010E94DE
:1022A000501D0E94C71B2FEF81EE94E0215080400B
:1022B0009040E1F700C0000063E580910501909136
:1022C00006010E945B1D0C94C71B8438C1F40E9458
:1022D000800F82FDD9C067E48091050190910601CD
:1022E0000E94501D0E94C71B2FEF81EE94E02150E9
:1022F00080409040E1F700C0000067E4DECF9CEF33
:10230000980F913A40F4682F809105019091060151
:102310000E94501DD8CF90E2980F983050F48770EB
:1023200091E001C0990F8A95EAF7892F0E947B1BE3
:10233000CACF9BE5980F933070F4853A29F0863A1E
:1023400031F083E890E005C081E890E002C082E8C7
:1023500090E00C94B40F98E5980F973108F08EC078
:10236000883A09F445C0893A09F445C08A3A09F423
:1023700045C08B3A09F445C08C3A09F445C08B3B03
:1023800009F445C08C3B09F445C08D3A09F445C0B9
:10239000803B09F445C08E3A09F445C08F3A09F4F0
:1023A00045C0813B09F445C0823B09F445C0833BED
:1023B00009F445C0843B09F445C0853B09F445C098
:1023C000863B09F445C0873B09F445C0883B09F4C6
:1023D00045C0893B09F445C08D3B09F445C08E3B9F
:1023E00009F445C08A3B09F445C080E090E044C050
:1023F00082EE90E041C089EE90E03EC08AEE90E02F
:102400003BC085EB90E038C086EB90E035C083EBB5
:1024100090E032C084EB90E02FC087EB90E02CC0BE
:102420008CEC90E029C08DEC90E026C083E891E030
:1024300023C08AE891E020C082E991E01DC084E9D0
:1024400091E01AC081E292E017C083E292E014C0EA
:1024500084E292E011C085E292E00EC086E292E052
:102460000BC087E292E008C08FE690E005C080E7ED
:1024700090E002C08AE292E00C94CA0F803F20F004
:102480000E94261F0C9413200895882309F464C029
:10249000823879F40E94800F81FF5EC069E38091E9
:1024A0000501909106010E94501D0E94C71B69E31F
:1024B00010C08338B1F40E94800F80FF4DC063E5E7
:1024C00080910501909106010E94501D0E94C71B3A
:1024D00063E580910501909106010E945B1D0C94BB
:1024E000C71B843879F40E94800F82FF35C067E4EF
:1024F00080910501909106010E94501D0E94C71B0A
:1025000067E4E7CF9CEF980F913A10F4682FE1CF82
:1025100090E2980F983050F4877091E001C0990FC5
:102520008A95EAF7892F0E94811BD9CF9BE5980FE6
:10253000933020F480E090E00C94B40F98E5980F6D
:10254000973120F480E090E00C94CA0F803F20F097
:102550000E948E1F0C9413200895CF93C82F0E94C1
:1025600027118C2FCF910C944512882321F00E94C3
:102570007B1B0C94C71B0895882321F00E94811BAC
:102580000C94C71B08958F929F92AF92BF92DF92D7
:10259000EF92FF920F931F93CF93DF937C01D62F7F
:1025A000C72FFC01058102950F70128111110E9445
:1025B0009B1B0E94711B882379F0112369F080E234
:1025C0008D0F883048F082E00E94121C0E94711B1F
:1025D00091E0D82ED92601C0D12CAC2EA2948FE048
:1025E000A822B12CF501E457FF4F0C9403288C2F3F
:1025F000807FCF70882311F0C295C07F112399F09E
:10260000CC2309F4C8C180E28D0F883010F0D111BD
:1026100004C08C2F0E947B1B03C08C2F0E948E1B3A
:102620000E94C71BB8C18D2F0E944512CC2309F40C
:102630002EC280E28D0F883010F0D11104C08C2F93
:102640000E94811B03C08C2F0E94941B0E94C71BF9
:102650001EC28C2F807FCF70803211F0C295C07F58
:10266000DD2319F0D130C9F021C0112371F000230E
:1026700041F0013031F40E94AE1B8C2B0E94B41B40
:1026800006C20E94AE1B8C2B3FC1002319F0013003
:1026900009F4FDC10E94BD1B11C0112321F00230BD
:1026A00008F0F5C107C00111F2C108C0112321F0E3
:1026B000011171C18C2F28C101117EC18C2F2AC13B
:1026C0008C2F86958695837090E0009719F001977E
:1026D00061F0DDC1112321F08D2F9C2F937002C07A
:1026E00080E090E00E94B40FE2C1112321F08D2F11
:1026F0009C2F937002C080E090E00E94CA0FD7C167
:102700001123F9F0D53F51F0D63F71F0D43FA9F431
:1027100080913A0390913B0381600BC080913A0312
:1027200090913B03826005C080913A0390913B03F6
:10273000846090933B0380933A038D2F0E94261F61
:102740001EC0D53F51F0D63F71F0D43FA9F480911F
:102750003A0390913B038E7F0BC080913A03909196
:102760003B038D7F05C080913A0390913B038B7FA3
:1027700090933B0380933A038D2F0E948E1F0E94FB
:10278000132095C18C2F837009F050C011118BC19B
:102790008D2F829586958770880F880F9D2F9F704B
:1027A000892E912CA12CB12C082E04C0880C991CC8
:1027B000AA1CBB1C0A94D2F7D4FF14C00FE010E08F
:1027C00020E030E0B901A80104C0440F551F661F86
:1027D000771F8A95D2F7CB01BA01609570958095E5
:1027E000909503C060E070E0CB01C695C695C370BC
:1027F000D0E0C230D10561F0C330D10581F0682945
:1028000079298A299B29219771F00E94B1194BC11E
:10281000682979298A299B290E94C31944C10E94E9
:10282000B119C501B4010E949F193DC1112319F0CE
:102830008C2F817001C08695882309F434C18D2FB7
:10284000829586958770880F880F9D2F9F70892E9F
:10285000912CA12CB12C082E04C0880C991CAA1C08
:10286000BB1C0A94D2F7D4FF14C00FE010E020E0A4
:1028700030E0B901A80104C0440F551F661F771F3F
:102880008A95D2F7CB01BA016095709580959095A5
:1028900003C060E070E0CB01C695C695C3704C2FB5
:1028A00050E04230510569F04330510589F0682904
:1028B00079298A299B294130510571F00E94761AA5
:1028C000F2C0682979298A299B290E94881AEBC0BD
:1028D0000E94761AC501B4010E94641AE4C08D2FCB
:1028E00090E0FC01E05EF109E531F10508F04FC030
:1028F000E456FF4F0C940328DF708C2F8F71112347
:1029000031F00E94FD198D2F0E94B512C0C00E94A7
:102910001E1A8D2F0E94BC12BAC0112339F001116A
:10292000B6C08C2F8F710E94431AB1C0023008F0DC
:10293000AEC0F7CF112339F08C2F8F710E94FD1993
:10294000A6C01123C9F38C2F8F710E941E1A9FC03D
:10295000112329F08C2F8F710E94E81998C00E94D2
:10296000E31995C0112349F0CF718C2F0E94FD19F6
:1029700063E08C2F0E94FD1B8AC081E00E94121C24
:10298000023008F484C082E00E94121C80C011232F
:1029900031F0002389F28D2F0E94271178C0002387
:1029A00091F2D93349F45FEF67EE73E05150604024
:1029B0007040E1F700C000008D2F0E94451267C0F3
:1029C0004C2F4F706D2FC7010E946A070E9410198B
:1029D0006EC0D23FB1F028F4D03F49F0D13FF9F0BA
:1029E00028C0D43FB9F058F0D53F71F022C0112370
:1029F00009F447C09091690281E0892708C081E00D
:102A00001827109369023DC011113BC081E08093EB
:102A1000690237C0111135C01092690232C011230A
:102A200029F080916802882329F329C0002311F33B
:102A300028C0809168020023C1F0882341F0909162
:102A4000690281E0892780936902109268028D2FC4
:102A5000112319F00E94271114C00E94451286E02C
:102A6000F70111928A95E9F70CC0882351F01111F2
:102A700008C09091690281E08927809369021092D1
:102A800068024C2F4F706D2FC7010E943F0BF8E07A
:102A9000AF16B10441F05CF04AE0A41AB10852E06C
:102AA000A516B10420F40E94800F0E948E09DD203B
:102AB000E1F00E946D1B80FD18C0F70112820E9498
:102AC000671B0E94FD19C7010E9481150E94671BA8
:102AD000DF91CF911F910F91FF90EF90DF90BF900A
:102AE000AF909F908F900C941E1ADF91CF911F9101
:102AF0000F91FF90EF90DF90BF90AF909F908F90DD
:102B000008950F931F93CF93DF93EC0188819981F0
:102B10002B813C81232BB9F09F3F11F48F3F99F01B
:102B2000CE010E94A009882371F0688179818A8191
:102B30000E94441B8C010E949A1A0E949C19B801A1
:102B4000CE010E94C312DF91CF911F910F91089582
:102B50000E949B1B0E94AB1B0E94C71B0E94B920B6
:102B60000E94132080E090E00E94B40F80E090E08B
:102B70000C94CA0F80910501909106010E94661D78
:102B80000C94A8150E948B1B0C94BA15E92FE295A2
:102B9000EF70F0E03297EE30F105B0F4EF54FF4FF4
:102BA0000C940328803F91F018F4803E68F40EC026
:102BB000843F51F40BC0803E48F0813F29F406C0A9
:102BC00093FB882780F9089580E0089581E00895B7
:102BD0000E94391B0E94C6150895CF93DF9300D041
:102BE00000D01F92CDB7DEB70F900F900F900F90CF
:102BF0000F90DF91CF910895CF93DF9300D000D055
:102C000000D0CDB7DEB726960FB6F894DEBF0FBE64
:102C1000CDBFDF91CF9108951F93CF93DF93C091E4
:102C20006A0216E080916B02C81799F0D0E01C9FF1
:102C3000F0011D9FF00D1124E459FD4F4081518199
:102C400062817381848195810E94FC152196C770F1
:102C5000E9CFDF91CF911F91089540919C0250914F
:102C60009D0260919E0270919F028091A0029091BE
:102C7000A1020C94FC158091A10282958F7009F03D
:102C800054C080919E02882309F44FC080916A024B
:102C9000A0916B0260919C0270919D0240919F02F5
:102CA0005091A002B6E08A1709F43FC090E04115A8
:102CB0005105C1F17F3F11F46F3FA1F1B89FF001C1
:102CC000B99FF00D1124E459FD4F218172132AC0E0
:102CD0002081621327C02281211124C023813481E5
:102CE0002417350710F421503109241B350B283CDB
:102CF0003105C0F42091A1022F7020612093A10220
:102D000026E0289FF001299FF00D1124EF58FD4F78
:102D100080818F70806180838CE992E00E948115B0
:102D20000C940C1601968770BECF0895CF92DF9257
:102D3000EF92FF920F931F93CF93DF93CDB7DEB740
:102D400062970FB6F894DEBF0FBECDBF8C0185E051
:102D5000F801DE011D9601900D928A95E1F7D801E8
:102D60004C9111965C91119712966C911297139653
:102D7000CD90DC90149730919C0270919D028091CF
:102D80009F029091A002009709F46BC17F3F19F454
:102D90003F3F09F466C1E0909E02EE2009F4C0C0F6
:102DA0002091A102C816D90628F0F601E81BF90BFC
:102DB000CF0104C0809590958C0D9D1DFF24F39448
:102DC000883C910578F0F12C207F09F0C6C07C2D5D
:102DD000D98AC88A89890E94ED158CE992E00E94FF
:102DE0008115B1C0822F807F09F046C0751314C0D1
:102DF000341312C0611110C02F7020612093A10202
:102E00000E942D168CE992E00E9481158091A1020A
:102E1000D80115968C932EC0CD2819F15F3F11F47F
:102E20004F3FF9F0F62E61111CC080916A0220918B
:102E30006B0236E0821709F45AC090E0389FF00127
:102E4000399FF00D1124E459FD4F7181571306C0CD
:102E50007081471303C07281711103C0019687709E
:102E6000E9CFF62E662309F427C18091A102816083
:102E70008093A102F12C20C1751308C0341306C041
:102E8000611104C08091A102D801C3C04D875E8743
:102E90008D859E856A8B0E94E8156A898823E1F1F9
:102EA0006623D1F12091A102822F82958F7090E04C
:102EB000029774F080919C0290919D0298878F8375
:102EC0001986DB86CA862C87CE0107960E9481155B
:102ED00086E0F801ACE9B2E001900D928A95E1F745
:102EE0000E943B160E942D16FF24F394E5C04D87E7
:102EF0005E878D859E850E94391B292F22952F7014
:102F000030E0223031050CF0CBC09F7009F0C5C015
:102F1000805E883008F4D0C0C8010E948115E4CFDB
:102F2000C816D90608F453C0F601E81BF90BCF0107
:102F3000883C910508F450C0F12C7C2DD98AC88AB0
:102F400089890E94ED15ECE9F2E086E0DF011D922F
:102F50008A95E9F70E942D16AFC0751314C034137B
:102F600012C0611110C08091A102F8018583C801CF
:102F70000E94811586E0ECE9F2E0DF011D928A955E
:102F8000E9F7FE2C99C04D875E878D859E856A8BFB
:102F90000E94E8156A89882309F4BECF662309F4E4
:102FA000BBCF2091A102822F82958F7090E0029773
:102FB0000CF48ECF80919C0290919D029A8389831C
:102FC0001B82DD82CC822E83CE0101967FCF80953D
:102FD00090958C0D9D1DACCFF62E662309F49CCFE9
:102FE00075132EC034132CC02091A10220FD1FC0E8
:102FF000822F82958F70D9F0D80115962C93159752
:103000008F3049F08F5F982F9295907F822F8F702D
:10301000892B15968C93C8010E94811586E0F801D2
:10302000ACE9B2E001900D928A95E1F793CF86E08A
:10303000F801ACE9B2E001900D928A95E1F73CC04D
:103040004D875E878D859E850E94E815811140CF52
:103050008091A10281608093A102C8010E94811524
:103060002BC0662309F458CF4D875E878D859E85DA
:103070000E94E815F82E882309F44ECF86E0F80167
:10308000ACE9B2E001900D928A95E1F78CE992E00B
:103090000E9415110E943B165DCF811139CF0CC0E3
:1030A000243031050CF038CF9F7009F431CFF8018E
:1030B0009581907F09F02CCF8F2D62960FB6F894F2
:1030C000DEBF0FBECDBFDF91CF911F910F91FF905B
:1030D000EF90DF90CF9008951F93CF93DF93CDB7FC
:1030E000DEB72C970FB6F894DEBF0FBECDBF4F836F
:1030F000588769877A878B879C87CE0107960E94BD
:103100009616882369F08F8198852A853B85232B25
:10311000F1F19F3F09F063C08F3F09F060C037C0F5
:1031200086E0FE013796DE01119601900D928A9598
:10313000E1F76F817885EA85FB85309741F17F3F24
:1031400011F46F3F21F120916B0230E0C90101962B
:103150008770992740916A0250E08417950709F417
:1031600047C069837A83FD83EC8396E0929FD00108
:10317000939FB00D1124A459BD4FFE0131960190CB
:103180000D929A95E1F780936B020E940C1616E05F
:1031900080916A0290916B028917C1F1189FC0015A
:1031A000112484599D4F0E949616882379F1E0914D
:1031B0006A021E9FF0011124E459FD4F40815181A4
:1031C00062817381848195810E94FC1580916A02DD
:1031D00090E001968770992780936A02D9CF4F813A
:1031E000588569857A858B859C850E94FC15CFCF93
:1031F0000E94C21510926B0210926A02ECE9F2E092
:1032000086E0DF011D928A95E9F7C1CF2C960FB6B3
:10321000F894DEBF0FBECDBFDF91CF911F9108950F
:10322000EF92FF920F931F93CF93DF938C01892B23
:1032300009F46CC0F12CEE24E394E8012196F80126
:103240008491843740F4843008F051C0813081F09B
:10325000823019F15BC0853709F444C0A8F19CE7BE
:10326000980F903708F052C08F770E94451241C0E6
:103270000E5F1F4FFE01C49180E28C0F883048F42E
:10328000C7708E2D01C0880FCA95EAF70E949E1B59
:1032900014C08C2F0E9427112DC00E5F1F4FFE01FE
:1032A000C49180E28C0F883058F4C7708E2D01C015
:1032B000880FCA95EAF70E94A41B0E94C71B1AC078
:1032C0008C2F0E94451216C00E5F1F4FFE01C49145
:1032D000CC2381F08FE99FE00197F1F700C0000057
:1032E000C150F6CF0E5F1F4FFE01F49003C00E9445
:1032F00027118E018F2D882309F49FCFEFE9FFE07E
:103300003197F1F700C000008150F5CFDF91CF91E8
:103310001F910F91FF90EF90089508950C948D19CF
:103320000E948E196093DD027093DE028093DF02AB
:103330009093E0020C94A81508950C9490190F93A3
:103340001F930091DD021091DE022091DF02309187
:10335000E002602B712B822B932B1F910F910C9409
:1033600090190F931F930091DD021091DE022091BE
:10337000DF023091E00260237123822393231F91A7
:103380000F910C9490190F931F930091DD021091EF
:10339000DE022091DF023091E00260277127822750
:1033A00093271F910F910C9490190C94A6080E94DA
:1033B000D5196093D9027093DA028093DB0290935F
:1033C000DC020C94A81560E070E0CB010C94D719D6
:1033D0000F931F9341E050E060E070E08A019B0191
:1033E00004C0000F111F221F331F8A95D2F7C90195
:1033F000B8011F910F910C94D7190F931F9341E0BF
:1034000050E060E070E004C0440F551F661F771F56
:103410008A95D2F78091D9029091DA02A091DB02CD
:10342000B091DC028A019B01082B192B2A2B3B2B24
:10343000C901B8011F910F910C94D7190F931F93D5
:1034400041E050E060E070E004C0440F551F661F8B
:10345000771F8A95D2F74095509560957095809129
:10346000D9029091DA02A091DB02B091DC028A01CC
:103470009B01082319232A233B23C901B8011F916B
:103480000F910C94D7190F931F9341E050E060E027
:1034900070E004C0440F551F661F771F8A95D2F74E
:1034A0008091D9029091DA02A091DB02B091DC0206
:1034B0008A019B01082719272A273B27C901B80140
:1034C0001F910F910C94D7190F931F930091D9025C
:1034D0001091DA022091DB023091DC02602B712B1B
:1034E000822B932B1F910F910C94D7190F931F933D
:1034F0000091D9021091DA022091DB023091DC02B6
:1035000060237123822393231F910F910C94D71969
:103510000F931F930091D9021091DA022091DB02E0
:103520003091DC0260277127822793271F910F912A
:103530000C94D7190895292F220F920F990F890FF4
:10354000A82FA695A695A695877051E001C0550FA6
:103550008A95EAF785E0A89FD001112420E030E0A9
:1035600070E0F901EA0FFB1FEE55FD4F4081CB01E2
:10357000022E02C0969587950A94E2F781709927EA
:10358000819584278523842780832F5F3F4F2530B3
:10359000310539F70895292F220F920F990F890FBE
:1035A000682F669566956695982F977085E0689F59
:1035B000B001112440E050E080E0FA01E60FF71F6F
:1035C000EE55FD4F208130E0092E02C0369527953B
:1035D0000A94E2F721703327042E01C0220F0A94C7
:1035E000EAF7822B4F5F5F4F4530510531F7089561
:1035F000BF92CF92DF92EF92FF920F931F93CF93E0
:10360000DF938C01C090DD02D090DE02E090DF02FB
:10361000F090E0028091D9029091DA02A091DB0251
:10362000B091DC02C82AD92AEA2AFB2ACFE1D0E0ED
:10363000D701C6010C2E04C0B695A795979587951E
:103640000A94D2F780FF07C0BC2EB8018C2F0E94CD
:103650005A0B019719F4219758F7B12C8B2DDF9154
:10366000CF911F910F91FF90EF90DF90CF90BF907F
:103670000895CF93DF93EC010E94F81ABE010E94D7
:103680005A0BDF91CF9108951F93CF93DF93EB01F6
:1036900090916702992321F0CB010E94391B13C03E
:1036A000882349F0CB010E94F81A182F682FCE0109
:1036B0000E949B1A04C0CB010E94CB1A182FBE0196
:1036C000812F0E945A0BDF91CF911F910895809115
:1036D000E10285958595859508958091E102877031
:1036E00008959091E102977081E009F480E00895D7
:1036F00080910503089590910503892B809305031C
:10370000089580959091050389238093050308957A
:103710008093050308951092050308959091040382
:10372000892B809304030895809590910403892345
:103730008093040308951092040308959091030365
:10374000892B809303030895809590910303892327
:103750008093030308951092030308958091E20279
:10376000089508950C94B11B9091E202981721F0EE
:103770008093E2020C94B21B08958091E2028823A8
:1037800029F01092E20280E00C94B21B0895E091BF
:103790000501F0910601809105038083E091050108
:1037A000F0910601908180910403892B8083E09140
:1037B0000501F0910601908180910303892B80839C
:1037C0008091E202882381F0E0910501F0910601E9
:1037D0009081892B808380910501909106010E9440
:1037E000EB1C81110E94BD1B809105019091060187
:1037F0000C948C0F08950C94FA1B98E0899F90010B
:103800001124262B2093E1020E94FD198091E102F0
:103810008595859585950C94FB1B1092E10280E0BF
:103820000C94FB1B2091E102809582238093E1029E
:10383000982F977079F430E0482F082E000C550B24
:103840002417350739F08595859585950E941E1AB0
:103850000C940D1C0895CF92DF92EF92FF926C01B1
:10386000EE24FF24C114D104E104F10421F0C701C6
:10387000B60120E101C020E0C72ED82EE92EFF249A
:10388000C114D104E104F10419F0285FC701B601A5
:103890006B017C0154E0F694E794D794C7945A9551
:1038A000D1F7C114D104E104F10419F02C5FC70170
:1038B000B6016B017C0142E0F694E794D794C7947B
:1038C0004A95D1F7C114D104E104F10419F02E5F37
:1038D000C701B601DC01CB01B695A79597958795F1
:1038E000892B8A2B8B2B09F02F5F822FFF90EF9073
:1038F000DF90CF90089580E090E00E94D32A21E0ED
:103900008D3E9E4F09F020E0822F089582E090E0E6
:103910000C94CB2A83E090E00C94CB2A84E090E0D6
:103920000C94CB2A682F84E090E00C94D92AAB0148
:10393000BC018FE090E00C94EB2AAB01BC0183E169
:1039400090E00C94EB2A60E070E0CB010C949D1C9D
:1039500060E070E0CB010E94971C0C94A31C6DEEFC
:103960007EEF80E090E00E94F72A60E082E090E045
:103970000E94D92A60E083E090E00E94D92A109248
:10398000DD021092DE021092DF021092E00260E08F
:1039900084E090E00E94D92A60E085E090E00E94F7
:1039A000D92A60E086E090E00E94D92A6FEF87E094
:1039B00090E00E94D92A40E050E0BA0188E090E00F
:1039C0000E94EB2A60E08DE090E00E94D92A0C94DE
:1039D000A81C0C94AF1CFC01329680911601882320
:1039E00031F08091400387FF02C09EE101C096E064
:1039F00080E0915028F021912223D9F38F5FF9CFF5
:103A000008959C01FC0132969FEF80E0419146179A
:103A100089F09F3F19F4411101C0982F8F5F8630C4
:103A2000A9F79F3F39F0F901E90FF11D97FDFA95CC
:103A3000628308950895FC0132960896208126132A
:103A400001C010823196E817F907C1F70895262FB3
:103A50002695269526952E3168F4FC01E20FF11D7E
:103A6000677021E030E001C0220F6A95EAF7828199
:103A7000282B22830895262F2695269526952E31CC
:103A800070F4FC01E20FF11D677021E030E001C02D
:103A9000220F6A95EAF720958281282322830895D0
:103AA00020911601222329F02091400327FD0C9438
:103AB000271D0C94011D20911601222329F020912D
:103AC000400327FD0C943B1D0C941B1D20911601F7
:103AD000FC013296222331F08091400387FF02C01F
:103AE0008EE101C086E0DF011D928A95E9F7089515
:103AF00008950C94781D0E94791D809146038430AE
:103B000049F11092070320E488E190E00FB6F894A1
:103B1000A895809360000FBE2093600080E00E9413
:103B20008E090E94791D83B7817F846083BF83B72C
:103B3000816083BF7894889583B78E7F83BF0FB6EB
:103B4000F894A8958091600088618093600010923D
:103B500060000FBE08950895CF930E94B3040E94A1
:103B60005C050E94AB1DC0E08C2F0E94A405811152
:103B700004C0CF5FCE30C1F701C081E0CF9108957E
:103B800008950C94C01D0E94C2150E94800F0E94CF
:103B90008E090C94C11D1F920F920FB60F92112423
:103BA0008F939F93AF93BF9380910703811113C0AD
:103BB00080913C0390913D03A0913E03B0913F035F
:103BC0004196A11DB11D80933C0390933D03A093AA
:103BD0003E03B0933F03BF91AF919F918F910F90A0
:103BE0000FBE0F901F90189582E084BD93E095BDA5
:103BF0009AEF97BD80936E0008952FB7F894809147
:103C00003C0390913D03A0913E03B0913F032FBF31
:103C10000895CF92DF92EF92FF920F931F932FB7E9
:103C2000F89440913C0350913D0360913E037091A4
:103C30003F032FBF6A017B01EE24FF248C0120E0AB
:103C400030E0C016D106E206F30610F441505109E7
:103C50009A01281B390BC9011F910F91FF90EF901A
:103C6000DF90CF90089578941F920F920FB60F9225
:103C700011248F939F93AF93BF9380913C039091B6
:103C80003D03A0913E03B0913F030196A11DB11DDC
:103C900080933C0390933D03A0933E03B0933F0376
:103CA000BF91AF919F918F910F900FBE0F901F907A
:103CB0001895F89481E08093E00080E28093D8002A
:103CC000E9ECF0E010828FE19EE40197F1F700C08B
:103CD00000001DBA109268001CBC10BE1FBA1092E2
:103CE0007A0010926E0010926F0010927100109284
:103CF00072001082ECEBF0E0108214B817B81AB81A
:103D00001DB810BA108215B818B81BB81EB811BA71
:103D10000C94003F08950E947B1C811102C00E94F8
:103D2000E91C0E94861C809306030E948E1C90E072
:103D300090934103809340030E948A1C682F70E097
:103D400080E090E00C949D1980910B0380FF0BC0E4
:103D500060910A0185E0689FB0011124759567950F
:103D6000759567952BC081FF09C060910A0185E0B8
:103D7000689FB00111247595679520C082FF07C028
:103D800060910A0185E0689FB001112417C09091ED
:103D90000C039923D1F060910901961788F72091BF
:103DA0000A0185E0289F90011124929FA001939F12
:103DB000500D112470E0CA010E94EF276038710590
:103DC00040F46115710539F002C065E070E0862F9E
:103DD00008958FE7089581E0089580910B0380FF97
:103DE00008C06091080170E07595679575956795B5
:103DF00021C081FF06C06091080170E0759567954C
:103E000019C082FF04C06091080170E010C0909159
:103E10000C039923C1F0609107019617A0F78091D8
:103E20000801899FC001112470E00E94EF276038CB
:103E3000710528F46115710521F0862F08958FE72B
:103E4000089581E0089561E070E0F4CF803F21F4AF
:103E50000E94A41E819504C0813F29F40E94A41EE3
:103E6000809310030895823F21F40E94A41E81953F
:103E700004C0833F29F40E94A41E80930F03089579
:103E8000893F19F40E94ED1E05C08A3F31F40E945B
:103E9000ED1E81958093110308958B3F21F40E94BC
:103EA000ED1E819504C08C3F29F40E94ED1E809385
:103EB00012030895843F21F480910E03816017C09E
:103EC000853F21F480910E03826011C0863F21F46A
:103ED00080910E0384600BC0873F21F480910E0314
:103EE000886005C0883F31F480910E038061809323
:103EF0000E0308958D3F21F480910B0381600BC068
:103F00008E3F21F480910B03826005C08F3F29F41E
:103F100080910B03846080930B030895803F39F4F4
:103F20008091100387FF6CC01092100369C0813F1D
:103F300029F4809110031816BCF362C090910F030E
:103F4000823F29F497FF5CC010920F0359C0833F52
:103F500019F41916CCF354C0893F41F48091110330
:103F600018160CF04DC0109211034AC08A3F29F474
:103F70008091110387FF44C0F6CF8B3F39F48091C5
:103F8000120387FF3DC0109212033AC08C3F29F400
:103F9000809112031816BCF333C0843F21F4809142
:103FA0000E038E7F17C0853F21F480910E038D7F15
:103FB00011C0863F21F480910E038B7F0BC0873F99
:103FC00021F480910E03877F05C0883F31F48091F2
:103FD0000E038F7E80930E0313C08D3F21F48091DA
:103FE0000B038E7F0BC08E3F21F480910B038D7FDE
:103FF00005C08F3F29F480910B038B7F80930B03C7
:1040000080910F0381110EC08091100381110AC0AD
:1040100080911103811106C080911203811102C0A9
:1040200010920C0308958DE093E00E94A60F0E9469
:10403000FD1D909309038093080308951F93CF9368
:10404000DF9380910803909109030E94091EAC013F
:1040500090910C03992321F020910B0130E006C0D0
:1040600020910A038AE0289F9001112442175307E8
:1040700008F47BC080910F03C0911003D09111030D
:1040800010911203811107C0C1116BC0D11169C019
:10409000111167C06AC09F3F19F09F5F90930C0396
:1040A000181624F40E94A41E80930F0380910F031E
:1040B00087FF05C00E94A41E819580930F031C16E4
:1040C00024F40E94A41E809310038091100387FFA4
:1040D00005C00E94A41E81958093100330910F03A8
:1040E0003323E1F0209110032223C1F045EB340388
:1040F000C0011124892F990F990B009709F481E0D1
:1041000080930F0335EB2303C0011124892F990FEE
:10411000990B009709F481E0809310031D1624F495
:104120000E94ED1E809311038091110387FF05C04B
:104130000E94ED1E819580931103111624F40E94B4
:10414000ED1E809312038091120387FF05C00E9429
:10415000ED1E819580931203DF91CF911F910C94F6
:1041600013209F3F09F099CFA1CFDF91CF911F91ED
:104170000895EDE0F3E086E0DF011D928A95E9F70E
:1041800010920C0310920B0308958091330308954D
:104190000F931F93CF93DF9300D01F92CDB7DEB75D
:1041A0008C010E943623823011F0843021F584E0A6
:1041B00089831B830A8382E08093E9008FEF9091CB
:1041C000E800815095FD06C095ED9A95F1F7000045
:1041D0008111F5CF8091E80085FF0DC040E050E0EF
:1041E00063E070E0CE0101960E9453238091E800C5
:1041F0008E778093E8000F900F900F90DF91CF9112
:104200001F910F910895CF93DF9300D01F92CDB7E8
:10421000DEB720914603243031F523E0298380580E
:1042200091099B838A8382E08093E9008FEF9091CC
:10423000E800815095FD06C095ED9A95F1F70000D4
:104240008111F5CF8091E80085FF0DC040E050E07E
:1042500063E070E0CE0101960E9453238091E80054
:104260008E778093E8000F900F900F90DF91CF91A1
:104270000895CF93DF93EC010E943623823011F032
:104280008430F9F482E08093E9009FEF8091E800A8
:10429000915085FD06C085ED8A95F1F700009111DA
:1042A000F5CF8091E80085FF0CC040E050E066E06B
:1042B00070E0CE010E9453238091E8008E778093B6
:1042C000E800DF91CF910895CF93DF93EC010E9436
:1042D0003623823011F08430D9F58091160188237D
:1042E00039F08091400387FF03C060E282E002C0A2
:1042F00068E081E08093E9008FEF9091E8008150C1
:1043000095FD06C095ED9A95F1F700008111F5CF66
:104310008091E80085FF1CC080911601811105C0C5
:1043200040E050E068E070E003C070E040E050E042
:10433000CE010E9453238091E8008E778093E8009D
:1043400080E2FE01A3E1B3E001900D928A95E1F7CE
:10435000DF91CF91089580914503811109C00E949A
:10436000E8240E9445258091E20084608093E20069
:104370000895109245030895089508950C94C31D5F
:1043800042E061EC81E00E94622442E261EC82E062
:104390000C94622480914803833009F460C030F4A7
:1043A000813071F0823009F499C008958A3009F49F
:1043B00085C08B3009F46BC0893009F0A7C020C0DC
:1043C00080914703813A09F0A1C08091E800877F7E
:1043D0008093E80080914B0390914C03892B21F44A
:1043E00060E283E193E003C060E080E090E070E091
:1043F0000E949E238091E8008B778093E8000895C7
:1044000080914703813209F081C080914B039091E4
:104410004C03029708F07AC08091E800877F809370
:10442000E8008091E80082FD05C08091460381117B
:10443000F8CF6CC02091F3008091F20090E0922BB5
:10444000029729F48091F1008B7F813021F48091D3
:10445000F100809333038091E8008B7753C0809103
:104460004703813A09F052C080914B0390914C036D
:10447000892B09F04BC08091E800877F8093E8008A
:104480008091E80080FFFCCF8091160136C08091BA
:1044900047038132D9F580914B0390914C03892BCE
:1044A000A9F58091E800877F8093E8000E94972417
:1044B00080914903809316010C94C21580914703A3
:1044C000813221F58091E800877F8093E8000E9487
:1044D000972480914A038093340308958091470381
:1044E000813AA1F48091E800877F8093E800809171
:1044F000E80080FFFCCF809134038093F10080912D
:10450000E8008E778093E8000C949724089584B790
:10451000877F84BF0FB6F894A8958091600088616A
:1045200080936000109260000FBE80E8809361006D
:10453000109261000E94E80F0E94E8240E94452525
:104540008091E20084608093E20078940E94D427F6
:104550000E94EE0F8CE091E00E947B0F8091460359
:10456000853069F40E947B1D809144038823B1F358
:104570000E94AC1D882391F30E943D23EFCF0E943F
:10458000F40FECCF0C94C422292F332723303105AC
:10459000C9F064F42130310581F02230310509F091
:1045A0004CC08BE390E029EA36E04BC02132310564
:1045B00021F12232310589F140C082E190E024EE00
:1045C00036E03FC099278130910571F02CF4892B9A
:1045D000A1F5E5EAF6E00DC08230910541F00397C0
:1045E00061F5EFE6F6E005C0EDE8F6E002C0E5E7CC
:1045F000F6E0849190E09F0124C06115710541F0BF
:1046000061307105D1F489E090E024ED36E019C005
:1046100089E090E02BEB36E014C06115710541F0A4
:104620006130710551F480EC90E026EF36E009C06E
:1046300080E490E026EB37E004C080E090E020E0EA
:1046400030E0FA013183208308950895CF93C82F75
:104650000E942523C0933503CF910895809146038E
:10466000843011F081E0089582E00895809135034F
:10467000811102C00C942E23089580E189BD82E14E
:1046800089BD09B400FEFDCF8091D8008F7D809355
:10469000D8008091E00082608093E0008091E0008B
:1046A00081FDFCCF0895CF92DF92EF92FF920F939E
:1046B0001F93CF93DF93EC018B016A010E94B62414
:1046C000811133C0C114D10439F0F6018081918188
:1046D000081B190BC80FD91FE12CF12C011511056E
:1046E00019F18091E80085FD16C08091E8008E7771
:1046F0008093E800C114D10449F0F60180819181D2
:10470000E80EF91EF182E08285E00FC00E94B62417
:10471000882321F30AC089918093F1000150110987
:10472000FFEFEF1AFF0ADACF80E0DF91CF911F9100
:104730000F91FF90EF90DF90CF90089520914D035F
:1047400030914E032617370748F06115710539F48B
:104750002091E8002E772093E80001C0B90140E0E5
:1047600061157105A9F120914603222309F443C084
:10477000253009F442C02091E80023FD40C020917B
:10478000E80022FD32C02091E80020FFE9CF4091EF
:10479000F3002091F20030E0342BFC01CF016115D1
:1047A000710559F02830310540F481918093F10072
:1047B000615071092F5F3F4FF1CF41E02830310543
:1047C00009F040E02091E8002E772093E800C8CF60
:1047D0004111C9CF0AC080914603882361F085301A
:1047E00061F08091E80083FD0AC08091E80082FFBB
:1047F000F2CF80E0089582E0089583E0089581E09B
:10480000089520914D0330914E032617370748F045
:104810006115710539F42091E8002E772093E800A6
:1048200001C0B901FC0120E06115710591F1809191
:104830004603882309F440C0853009F43FC08091C5
:10484000E80083FD3DC08091E80082FD2FC080918B
:10485000E80080FFE9CF2091F3008091F20090E022
:10486000922B6115710559F08830910540F424911F
:104870002093F1003196615071090196F2CF21E049
:10488000089709F020E08091E8008E778093E80097
:10489000CBCF2111CCCF0AC080914603882361F091
:1048A000853061F08091E80083FD0AC08091E800C6
:1048B00082FFF2CF80E0089582E0089583E00895BA
:1048C00081E00895982F973058F59093E900981754
:1048D00039F07091EC002091ED005091F00003C090
:1048E000242F762F50E021FF19C03091EB003E7F3E
:1048F0003093EB003091ED003D7F3093ED0030912F
:10490000EB0031603093EB007093EC002093ED00EE
:104910005093F0002091EE0027FF07C09F5FD3CF98
:104920008F708093E90081E0089580E00895809180
:10493000470387FF11C08091E80082FD05C0809188
:1049400046038111F8CF11C08091E8008B770BC02E
:1049500080914603882349F08091E80080FFF8CFDA
:104960008091E8008E778093E80008952091E4001C
:104970003091E50095E64091EC00842F817040FF76
:1049800022C08091E80080FD1CC0809146038823EE
:1049900091F0853091F08091EB0085FD10C0409141
:1049A000E4005091E5004217530729F39A01915012
:1049B00011F784E0089582E0089583E0089581E08E
:1049C000089580E008954091E80042FFDECF089509
:1049D0000E9456250E945E25E0EEF0E08081816015
:1049E0008083E8EDF0E080818F77808319BCA7EDAC
:1049F000B0E08C918E7F8C9380818F7E808310922B
:104A0000450308950F931F93CF93DF930E9456257C
:104A10000E945E25C8EDD0E088818F7788838881E9
:104A20008068888388818F7D888319BC10924603B3
:104A300010924203109244031092430300EE10E0E0
:104A4000F80180818B7F808388818160888342E048
:104A500060E080E00E946224E1EEF0E080818E7FE1
:104A60008083E2EEF0E080818160808380818860D5
:104A70008083F80180818E7F808388818061888334
:104A8000DF91CF911F910F910895E8EDF0E08081C3
:104A90008F7E8083E7EDF0E080818160808384E019
:104AA00082BF81E0809345030C940225E8EDF0E09D
:104AB00080818E7F80831092E20008951092DA0048
:104AC0001092E10008951F920F920FB60F921124D9
:104AD0002F933F934F935F936F937F938F939F9306
:104AE000AF93BF93EF93FF938091E10082FF0BC0E0
:104AF0008091E20082FF07C08091E1008B7F80936C
:104B0000E1000E94D3278091DA0080FF1FC08091CE
:104B1000D80080FF1BC08091DA008E7F8093DA007E
:104B20008091D90080FF0DC080E189BD82E189BDFF
:104B300009B400FEFDCF81E0809346030E94AB21C3
:104B400005C019BC109246030E94B9218091E10072
:104B500080FF19C08091E20080FF15C08091E200C3
:104B60008E7F8093E2008091E20080618093E2007A
:104B70008091D80080628093D80019BC85E0809332
:104B800046030E94BD218091E10084FF30C08091E6
:104B9000E20084FF2CC080E189BD82E189BD09B4B7
:104BA00000FEFDCF8091D8008F7D8093D80080914A
:104BB000E1008F7E8093E1008091E2008F7E809300
:104BC000E2008091E20081608093E20080914203E4
:104BD000882311F084E007C08091E30087FD02C0C4
:104BE00081E001C083E0809346030E94BE21809152
:104BF000E10083FF29C08091E20083FF25C08091FE
:104C0000E100877F8093E10082E080934603109269
:104C100042038091E1008E7F8093E1008091E20069
:104C20008E7F8093E2008091E20080618093E200B9
:104C300042E060E080E00E9462248091F0008860A1
:104C40008093F0000E94BC21FF91EF91BF91AF9142
:104C50009F918F917F916F915F914F913F912F9194
:104C60000F900FBE0F901F9018951F920F920FB6C6
:104C70000F9211242F933F934F935F936F937F93E2
:104C80008F939F93AF93BF93CF93DF93EF93FF9354
:104C9000C091E900CF708091EC00D82FD17080FDD9
:104CA000D0E81092E9008091F000877F8093F000B7
:104CB00078940E9479261092E9008091F000886033
:104CC0008093F000CD2BCF70C093E900FF91EF915E
:104CD000DF91CF91BF91AF919F918F917F916F9114
:104CE0005F914F913F912F910F900FBE0F901F90AA
:104CF00018951F93CF93DF93CDB7DEB7AA970FB662
:104D0000F894DEBF0FBECDBFE7E4F3E088E08E0F7E
:104D10009091F10091938E13FBCF0E94CA21809154
:104D2000E80083FF28C18091470390914803492FF1
:104D300050E04A30510508F01EC1FA01E154FF4F1E
:104D40000C940328803821F0823809F014C108C07F
:104D50008091430390914403992389F082600FC0AE
:104D600080914B038F70873008F005C18093E90074
:104D70008091EB0085FB882780F91092E9009091E3
:104D8000E800977F9093E8008093F1001092F10083
:104D9000D0C0282F2D7F09F0EEC0882319F0823073
:104DA00061F0E9C080914903813009F0E4C093309B
:104DB00009F080E0809344032EC080914903811163
:104DC0002AC080914B038F702FEF280F263008F0F8
:104DD000D2C08093E9002091EB0020FF1CC09330EB
:104DE00021F48091EB00806214C09091EB009061FF
:104DF0009093EB0021E030E0A90102C0440F551F61
:104E00008A95E2F74093EA001092EA008091EB0065
:104E100088608093EB001092E9008091E800877F22
:104E20008093E8000E949724A6C08111A4C010912D
:104E300049031F778091E3008078812B8093E30002
:104E40008091E800877F8093E8000E9497248091FA
:104E5000E80080FFFCCF8091E30080688093E3004E
:104E6000111102C082E001C083E08093460383C039
:104E70008058823008F07FC08091490390914A03A6
:104E80008C3D53E0950779F583E08A838AE2898334
:104E90004FB7F894DE01139620E03EE051E2E32F95
:104EA000F0E050935700E49120FF03C0E295EF70CB
:104EB0003F5FEF708E2F90E0EA3010F0C79601C090
:104EC000C0968D939D932F5F243149F74FBF8091FA
:104ED000E800877F8093E8006AE270E0CE010196E7
:104EE0000E949E2315C060914B0370914C03AE014C
:104EF0004F5F5F4F0E94C222BC01892BE1F190916C
:104F0000E800977F9093E80089819A810E940124AC
:104F10008091E8008B778093E8002DC0803859F5A8
:104F20008091E800877F8093E8008091420380931E
:104F3000F1008091E8008E7773CF81111CC09091B1
:104F400049039230C0F48091E800877F8093E800A5
:104F5000909342030E94972480914203811106C0DE
:104F60008091E30087FD02C081E001C084E080936E
:104F700046030E94C0218091E80083FF0AC080910F
:104F8000E800877F8093E8008091EB008062809347
:104F9000EB00AA960FB6F894DEBF0FBECDBFDF912F
:104FA000CF911F9108950895CF9380914603882350
:104FB000A1F0C091E900CF709091EC00892F817031
:104FC00090FD80E8C82B1092E9008091E80083FDF5
:104FD0000E947926CF70C093E900CF91089597FB86
:104FE000072E16F4009407D077FD09D00E940928F7
:104FF00007FC05D03EF4909581959F4F08957095DC
:1050000061957F4F0895EE0FFF1F0590F491E02DFD
:105010000994AA1BBB1B51E107C0AA1FBB1FA617FF
:10502000B70710F0A61BB70B881F991F5A95A9F751
:1050300080959095BC01CD010895AEE0B0E0E3E22B
:10504000F8E20C941B2B0D891E898F89988D26E020
:105050002C831A83098397FF02C080E090E80197B0
:105060009E838D83AE01455E5F4F698D7A8DCE0143
:1050700001960E944D284D815E8157FD0AC02F8107
:105080003885421753070CF49A01F801E20FF31F19
:1050900010822E96E4E00C94372BACE0B0E0E3E510
:1050A000F8E20C940D2B7C016B018A01FC01178244
:1050B0001682838181FFBDC1CE0101964C01F701AB
:1050C0009381F60193FD859193FF81916F01882370
:1050D00009F4ABC1853239F493FD859193FF819139
:1050E0006F01853229F4B70190E00E94352AE7CF9D
:1050F000512C312C20E02032A0F48B3269F030F4B6
:10510000803259F0833269F420612CC08D3239F03D
:10511000803339F4216026C02260246023C02860D7
:1051200021C027FD27C030ED380F3A3078F426FF34
:1051300006C0FAE05F9E300D1124532E13C08AE0A2
:10514000389E300D1124332E20620CC08E3221F493
:1051500026FD6BC1206406C08C3611F4206802C0A5
:10516000883641F4F60193FD859193FF81916F019B
:105170008111C1CF982F9F7D9554933028F40C5FF7
:105180001F4FFFE3F9830DC0833631F0833771F091
:10519000833509F05BC022C0F801808189830E5FEE
:1051A0001F4F44244394512C540115C03801F2E0A0
:1051B0006F0E711CF801A080B18026FF03C0652D21
:1051C00070E002C06FEF7FEFC5012C870E942A2A92
:1051D0002C0183012C852F77222E17C03801F2E095
:1051E0006F0E711CF801A080B18026FF03C0652DF1
:1051F00070E002C06FEF7FEFC5012C870E941F2A6D
:105200002C012C852068222E830123FC1BC0832DBA
:1052100090E048165906B0F4B70180E290E00E9491
:10522000352A3A94F4CFF50127FC859127FE819128
:105230005F01B70190E00E94352A31103A94F1E005
:105240004F1A51084114510471F7E5C0843611F02A
:10525000893639F5F80127FF07C0608171818281A5
:1052600093810C5F1F4F08C060817181072E000C75
:10527000880B990B0E5F1F4F2F76722E97FF09C078
:1052800090958095709561957F4F8F4F9F4F2068C7
:10529000722E2AE030E0A4010E946D2AA82EA818E0
:1052A00044C0853729F42F7EB22E2AE030E025C095
:1052B000F22FF97FBF2E8F36C1F018F4883579F0C0
:1052C000B4C0803719F0883721F0AFC02F2F20618C
:1052D000B22EB4FE0DC08B2D8460B82E09C024FF01
:1052E0000AC09F2F9660B92E06C028E030E005C0A6
:1052F00020E130E002C020E132E0F801B7FE07C053
:1053000060817181828193810C5F1F4F06C0608133
:10531000718180E090E00E5F1F4FA4010E946D2A12
:10532000A82EA818FB2DFF777F2E76FE0BC0372DF9
:105330003E7FA51450F474FE0AC072FC08C0372DDD
:105340003E7E05C0BA2C372D03C0BA2C01C0B52C47
:1053500034FF0DC0FE01EA0DF11D8081803311F490
:10536000397E09C032FF06C0B394B39404C0832FC2
:10537000867809F0B39433FD13C030FF06C05A2C71
:10538000B31418F4530C5B18B32CB31468F4B701BE
:1053900080E290E03C870E94352AB3943C85F5CFAB
:1053A000B31410F43B1801C0312C34FF12C0B70104
:1053B00080E390E03C870E94352A3C8532FF17C08D
:1053C00031FD03C088E790E002C088E590E0B701B6
:1053D0000CC0832F867859F031FF02C08BE201C0E8
:1053E00080E237FD8DE2B70190E00E94352AA514D6
:1053F00038F4B70180E390E00E94352A5A94F7CF41
:10540000AA94F401EA0DF11D8081B70190E00E9499
:10541000352AA110F5CF332009F451CEB70180E22F
:1054200090E00E94352A3A94F6CFF7018681978161
:1054300002C08FEF9FEF2C96E2E10C94292BFC0128
:105440000590615070400110D8F7809590958E0FAF
:105450009F1F0895FC016150704001900110D8F722
:10546000809590958E0F9F1F08950F931F93CF9354
:10547000DF93FB01238121FD03C08FEF9FEF28C045
:1054800022FF16C046815781248135814217530778
:1054900044F4A081B1819D012F5F3F4F3183208370
:1054A0008C93268137812F5F3F4F3783268310C02F
:1054B000EB01092F182F0084F185E02D0995892B28
:1054C000E1F68E819F8101969F838E83812F902F9D
:1054D000DF91CF911F910F910895FA01AA272830EB
:1054E00051F1203181F1E8946F936E7F6E5F7F4FB1
:1054F0008F4F9F4FAF4FB1E03ED0B4E03CD0670F2D
:10550000781F891F9A1FA11D680F791F8A1F911D7F
:10551000A11D6A0F711D811D911DA11D20D009F4CF
:1055200068943F912AE0269F11243019305D319311
:10553000DEF6CF010895462F4770405D4193B3E0FA
:105540000FD0C9F7F6CF462F4F70405D4A3318F0A1
:10555000495D31FD4052419302D0A9F7EACFB4E052
:10556000A6959795879577956795BA95C9F700970A
:105570006105710508959B01AC010A2E06945795AB
:10558000479537952795BA95C9F7620F731F841F02
:10559000951FA01D0895F999FECF92BD81BDF89A7F
:1055A000992780B50895A8E1B0E042E050E00C945E
:1055B000FF2A262FF999FECF92BD81BDF89A019757
:1055C00000B4021639F01FBA20BD0FB6F894FA9A4B
:1055D000F99A0FBE08950396272F0E94DA2A0E9497
:1055E000D92A252F0E94DA2A242F0C94DA2A019630
:1055F000272F0E94DA2A0C94D92ADC01CB01FC0166
:10560000F999FECF06C0F2BDE1BDF89A319600B41B
:105610000D9241505040B8F708952F923F924F920B
:105620005F926F927F928F929F92AF92BF92CF9232
:10563000DF92EF92FF920F931F93CF93DF93CDB73B
:10564000DEB7CA1BDB0B0FB6F894DEBF0FBECDBFB3
:1056500009942A88398848885F846E847D848C8484
:105660009B84AA84B984C884DF80EE80FD800C818D
:105670001B81AA81B981CE0FD11D0FB6F894DEBF70
:0C5680000FBECDBFED010895F894FFCFE0
:10568C002000019600E30228083C0714C520642181
:10569C0039210321C82001000D010D020D030D0459
:1056AC000D050D000C010C020C030C040C050C0078
:1056BC000B010B020B030B040B050B000A010A0276
:1056CC000A030A040A050A0009010902090309046C
:1056DC000905090008010802080308040805080068
:1056EC000701070207030704070507000601060266
:1056FC00060306040605060005010502050305045C
:10570C000505050004010402040304040405040057
:10571C000301030203030304030503000201020255
:10572C00020302040205020001010102010301044B
:10573C000105010000010002000300040005000A3D
:04574C0025640A00C6
:00000001FF
